{
	"_format": "hh-sol-artifact-1",
	"contractName": "BuidlNFT",
	"sourceName": "contracts/Buidlnft.sol",
	"abi": [
		{
			"inputs": [
				{
					"internalType": "string",
					"name": "name",
					"type": "string"
				},
				{
					"internalType": "string",
					"name": "symbol",
					"type": "string"
				}
			],
			"stateMutability": "nonpayable",
			"type": "constructor"
		},
		{
			"anonymous": false,
			"inputs": [
				{
					"indexed": true,
					"internalType": "address",
					"name": "owner",
					"type": "address"
				},
				{
					"indexed": true,
					"internalType": "address",
					"name": "approved",
					"type": "address"
				},
				{
					"indexed": true,
					"internalType": "uint256",
					"name": "tokenId",
					"type": "uint256"
				}
			],
			"name": "Approval",
			"type": "event"
		},
		{
			"anonymous": false,
			"inputs": [
				{
					"indexed": true,
					"internalType": "address",
					"name": "owner",
					"type": "address"
				},
				{
					"indexed": true,
					"internalType": "address",
					"name": "operator",
					"type": "address"
				},
				{
					"indexed": false,
					"internalType": "bool",
					"name": "approved",
					"type": "bool"
				}
			],
			"name": "ApprovalForAll",
			"type": "event"
		},
		{
			"anonymous": false,
			"inputs": [
				{
					"indexed": true,
					"internalType": "address",
					"name": "from",
					"type": "address"
				},
				{
					"indexed": true,
					"internalType": "address",
					"name": "to",
					"type": "address"
				},
				{
					"indexed": true,
					"internalType": "uint256",
					"name": "tokenId",
					"type": "uint256"
				}
			],
			"name": "Transfer",
			"type": "event"
		},
		{
			"inputs": [
				{
					"internalType": "address",
					"name": "to",
					"type": "address"
				},
				{
					"internalType": "uint256",
					"name": "tokenId",
					"type": "uint256"
				}
			],
			"name": "approve",
			"outputs": [],
			"stateMutability": "nonpayable",
			"type": "function"
		},
		{
			"inputs": [
				{
					"internalType": "address",
					"name": "owner",
					"type": "address"
				}
			],
			"name": "balanceOf",
			"outputs": [
				{
					"internalType": "uint256",
					"name": "",
					"type": "uint256"
				}
			],
			"stateMutability": "view",
			"type": "function"
		},
		{
			"inputs": [
				{
					"internalType": "uint256",
					"name": "tokenId",
					"type": "uint256"
				}
			],
			"name": "getApproved",
			"outputs": [
				{
					"internalType": "address",
					"name": "",
					"type": "address"
				}
			],
			"stateMutability": "view",
			"type": "function"
		},
		{
			"inputs": [
				{
					"internalType": "address",
					"name": "owner",
					"type": "address"
				},
				{
					"internalType": "address",
					"name": "operator",
					"type": "address"
				}
			],
			"name": "isApprovedForAll",
			"outputs": [
				{
					"internalType": "bool",
					"name": "",
					"type": "bool"
				}
			],
			"stateMutability": "view",
			"type": "function"
		},
		{
			"inputs": [
				{
					"internalType": "address",
					"name": "to",
					"type": "address"
				},
				{
					"internalType": "string",
					"name": "uri",
					"type": "string"
				}
			],
			"name": "mintNFT",
			"outputs": [],
			"stateMutability": "nonpayable",
			"type": "function"
		},
		{
			"inputs": [],
			"name": "name",
			"outputs": [
				{
					"internalType": "string",
					"name": "",
					"type": "string"
				}
			],
			"stateMutability": "view",
			"type": "function"
		},
		{
			"inputs": [
				{
					"internalType": "uint256",
					"name": "tokenId",
					"type": "uint256"
				}
			],
			"name": "ownerOf",
			"outputs": [
				{
					"internalType": "address",
					"name": "",
					"type": "address"
				}
			],
			"stateMutability": "view",
			"type": "function"
		},
		{
			"inputs": [
				{
					"internalType": "address",
					"name": "from",
					"type": "address"
				},
				{
					"internalType": "address",
					"name": "to",
					"type": "address"
				},
				{
					"internalType": "uint256",
					"name": "tokenId",
					"type": "uint256"
				}
			],
			"name": "safeTransferFrom",
			"outputs": [],
			"stateMutability": "nonpayable",
			"type": "function"
		},
		{
			"inputs": [
				{
					"internalType": "address",
					"name": "from",
					"type": "address"
				},
				{
					"internalType": "address",
					"name": "to",
					"type": "address"
				},
				{
					"internalType": "uint256",
					"name": "tokenId",
					"type": "uint256"
				},
				{
					"internalType": "bytes",
					"name": "data",
					"type": "bytes"
				}
			],
			"name": "safeTransferFrom",
			"outputs": [],
			"stateMutability": "nonpayable",
			"type": "function"
		},
		{
			"inputs": [
				{
					"internalType": "address",
					"name": "operator",
					"type": "address"
				},
				{
					"internalType": "bool",
					"name": "approved",
					"type": "bool"
				}
			],
			"name": "setApprovalForAll",
			"outputs": [],
			"stateMutability": "nonpayable",
			"type": "function"
		},
		{
			"inputs": [
				{
					"internalType": "bytes4",
					"name": "interfaceId",
					"type": "bytes4"
				}
			],
			"name": "supportsInterface",
			"outputs": [
				{
					"internalType": "bool",
					"name": "",
					"type": "bool"
				}
			],
			"stateMutability": "view",
			"type": "function"
		},
		{
			"inputs": [],
			"name": "symbol",
			"outputs": [
				{
					"internalType": "string",
					"name": "",
					"type": "string"
				}
			],
			"stateMutability": "view",
			"type": "function"
		},
		{
			"inputs": [
				{
					"internalType": "uint256",
					"name": "index",
					"type": "uint256"
				}
			],
			"name": "tokenByIndex",
			"outputs": [
				{
					"internalType": "uint256",
					"name": "",
					"type": "uint256"
				}
			],
			"stateMutability": "view",
			"type": "function"
		},
		{
			"inputs": [
				{
					"internalType": "address",
					"name": "owner",
					"type": "address"
				},
				{
					"internalType": "uint256",
					"name": "index",
					"type": "uint256"
				}
			],
			"name": "tokenOfOwnerByIndex",
			"outputs": [
				{
					"internalType": "uint256",
					"name": "",
					"type": "uint256"
				}
			],
			"stateMutability": "view",
			"type": "function"
		},
		{
			"inputs": [
				{
					"internalType": "uint256",
					"name": "tokenId",
					"type": "uint256"
				}
			],
			"name": "tokenURI",
			"outputs": [
				{
					"internalType": "string",
					"name": "",
					"type": "string"
				}
			],
			"stateMutability": "view",
			"type": "function"
		},
		{
			"inputs": [],
			"name": "totalSupply",
			"outputs": [
				{
					"internalType": "uint256",
					"name": "",
					"type": "uint256"
				}
			],
			"stateMutability": "view",
			"type": "function"
		},
		{
			"inputs": [
				{
					"internalType": "uint256",
					"name": "tokenId",
					"type": "uint256"
				},
				{
					"internalType": "address",
					"name": "to",
					"type": "address"
				}
			],
			"name": "transfer",
			"outputs": [],
			"stateMutability": "nonpayable",
			"type": "function"
		},
		{
			"inputs": [
				{
					"internalType": "address",
					"name": "from",
					"type": "address"
				},
				{
					"internalType": "address",
					"name": "to",
					"type": "address"
				},
				{
					"internalType": "uint256",
					"name": "tokenId",
					"type": "uint256"
				}
			],
			"name": "transferFrom",
			"outputs": [],
			"stateMutability": "nonpayable",
			"type": "function"
		}
	],
	"bytecode": "0x60806040523480156200001157600080fd5b5060405162003a6b38038062003a6b83398181016040528101906200003791906200023b565b818181600090816200004a91906200050b565b5080600190816200005c91906200050b565b50505033600c60006101000a81548173ffffffffffffffffffffffffffffffffffffffff021916908373ffffffffffffffffffffffffffffffffffffffff1602179055505050620005f2565b6000604051905090565b600080fd5b600080fd5b600080fd5b600080fd5b6000601f19601f8301169050919050565b7f4e487b7100000000000000000000000000000000000000000000000000000000600052604160045260246000fd5b6200011182620000c6565b810181811067ffffffffffffffff82111715620001335762000132620000d7565b5b80604052505050565b600062000148620000a8565b905062000156828262000106565b919050565b600067ffffffffffffffff821115620001795762000178620000d7565b5b6200018482620000c6565b9050602081019050919050565b60005b83811015620001b157808201518184015260208101905062000194565b60008484015250505050565b6000620001d4620001ce846200015b565b6200013c565b905082815260208101848484011115620001f357620001f2620000c1565b5b6200020084828562000191565b509392505050565b600082601f83011262000220576200021f620000bc565b5b815162000232848260208601620001bd565b91505092915050565b60008060408385031215620002555762000254620000b2565b5b600083015167ffffffffffffffff811115620002765762000275620000b7565b5b620002848582860162000208565b925050602083015167ffffffffffffffff811115620002a857620002a7620000b7565b5b620002b68582860162000208565b9150509250929050565b600081519050919050565b7f4e487b7100000000000000000000000000000000000000000000000000000000600052602260045260246000fd5b600060028204905060018216806200031357607f821691505b602082108103620003295762000328620002cb565b5b50919050565b60008190508160005260206000209050919050565b60006020601f8301049050919050565b600082821b905092915050565b600060088302620003937fffffffffffffffffffffffffffffffffffffffffffffffffffffffffffffffff8262000354565b6200039f868362000354565b95508019841693508086168417925050509392505050565b6000819050919050565b6000819050919050565b6000620003ec620003e6620003e084620003b7565b620003c1565b620003b7565b9050919050565b6000819050919050565b6200040883620003cb565b620004206200041782620003f3565b84845462000361565b825550505050565b600090565b6200043762000428565b62000444818484620003fd565b505050565b5b818110156200046c57620004606000826200042d565b6001810190506200044a565b5050565b601f821115620004bb5762000485816200032f565b620004908462000344565b81016020851015620004a0578190505b620004b8620004af8562000344565b83018262000449565b50505b505050565b600082821c905092915050565b6000620004e060001984600802620004c0565b1980831691505092915050565b6000620004fb8383620004cd565b9150826002028217905092915050565b6200051682620002c0565b67ffffffffffffffff811115620005325762000531620000d7565b5b6200053e8254620002fa565b6200054b82828562000470565b600060209050601f8311600181146200058357600084156200056e578287015190505b6200057a8582620004ed565b865550620005ea565b601f19841662000593866200032f565b60005b82811015620005bd5784890151825560018201915060208501945060208101905062000596565b86831015620005dd5784890151620005d9601f891682620004cd565b8355505b6001600288020188555050505b505050505050565b61346980620006026000396000f3fe608060405234801561001057600080fd5b50600436106101165760003560e01c80636352211e116100a2578063b7760c8f11610071578063b7760c8f14610305578063b88d4fde14610321578063c87b56dd1461033d578063e985e9c51461036d578063eacabe141461039d57610116565b80636352211e1461026b57806370a082311461029b57806395d89b41146102cb578063a22cb465146102e957610116565b806318160ddd116100e957806318160ddd146101b557806323b872dd146101d35780632f745c59146101ef57806342842e0e1461021f5780634f6ccce71461023b57610116565b806301ffc9a71461011b57806306fdde031461014b578063081812fc14610169578063095ea7b314610199575b600080fd5b610135600480360381019061013091906120a1565b6103b9565b60405161014291906120e9565b60405180910390f35b6101536103cb565b6040516101609190612194565b60405180910390f35b610183600480360381019061017e91906121ec565b61045d565b604051610190919061225a565b60405180910390f35b6101b360048036038101906101ae91906122a1565b6104a3565b005b6101bd6105ba565b6040516101ca91906122f0565b60405180910390f35b6101ed60048036038101906101e8919061230b565b6105c7565b005b610209600480360381019061020491906122a1565b610627565b60405161021691906122f0565b60405180910390f35b6102396004803603810190610234919061230b565b6106cc565b005b610255600480360381019061025091906121ec565b6106ec565b60405161026291906122f0565b60405180910390f35b610285600480360381019061028091906121ec565b61075d565b604051610292919061225a565b60405180910390f35b6102b560048036038101906102b0919061235e565b6107e3565b6040516102c291906122f0565b60405180910390f35b6102d361089a565b6040516102e09190612194565b60405180910390f35b61030360048036038101906102fe91906123b7565b61092c565b005b61031f600480360381019061031a91906123f7565b610942565b005b61033b6004803603810190610336919061256c565b610951565b005b610357600480360381019061035291906121ec565b6109b3565b6040516103649190612194565b60405180910390f35b610387600480360381019061038291906125ef565b6109c5565b60405161039491906120e9565b60405180910390f35b6103b760048036038101906103b291906126d0565b610a59565b005b60006103c482610a8a565b9050919050565b6060600080546103da9061275b565b80601f01602080910402602001604051908101604052809291908181526020018280546104069061275b565b80156104535780601f1061042857610100808354040283529160200191610453565b820191906000526020600020905b81548152906001019060200180831161043657829003601f168201915b5050505050905090565b600061046882610b04565b6004600083815260200190815260200160002060009054906101000a900473ffffffffffffffffffffffffffffffffffffffff169050919050565b60006104ae8261075d565b90508073ffffffffffffffffffffffffffffffffffffffff168373ffffffffffffffffffffffffffffffffffffffff160361051e576040517f08c379a0000000000000000000000000000000000000000000000000000000008152600401610515906127fe565b60405180910390fd5b8073ffffffffffffffffffffffffffffffffffffffff1661053d610b4f565b73ffffffffffffffffffffffffffffffffffffffff16148061056c575061056b81610566610b4f565b6109c5565b5b6105ab576040517f08c379a00000000000000000000000000000000000000000000000000000000081526004016105a290612890565b60405180910390fd5b6105b58383610b57565b505050565b6000600980549050905090565b6105d86105d2610b4f565b82610c10565b610617576040517f08c379a000000000000000000000000000000000000000000000000000000000815260040161060e90612922565b60405180910390fd5b610622838383610ca5565b505050565b6000610632836107e3565b8210610673576040517f08c379a000000000000000000000000000000000000000000000000000000000815260040161066a906129b4565b60405180910390fd5b600760008473ffffffffffffffffffffffffffffffffffffffff1673ffffffffffffffffffffffffffffffffffffffff168152602001908152602001600020600083815260200190815260200160002054905092915050565b6106e783838360405180602001604052806000815250610951565b505050565b60006106f66105ba565b8210610737576040517f08c379a000000000000000000000000000000000000000000000000000000000815260040161072e90612a46565b60405180910390fd5b6009828154811061074b5761074a612a66565b5b90600052602060002001549050919050565b60008061076983610f9e565b9050600073ffffffffffffffffffffffffffffffffffffffff168173ffffffffffffffffffffffffffffffffffffffff16036107da576040517f08c379a00000000000000000000000000000000000000000000000000000000081526004016107d190612ae1565b60405180910390fd5b80915050919050565b60008073ffffffffffffffffffffffffffffffffffffffff168273ffffffffffffffffffffffffffffffffffffffff1603610853576040517f08c379a000000000000000000000000000000000000000000000000000000000815260040161084a90612b73565b60405180910390fd5b600360008373ffffffffffffffffffffffffffffffffffffffff1673ffffffffffffffffffffffffffffffffffffffff168152602001908152602001600020549050919050565b6060600180546108a99061275b565b80601f01602080910402602001604051908101604052809291908181526020018280546108d59061275b565b80156109225780601f106108f757610100808354040283529160200191610922565b820191906000526020600020905b81548152906001019060200180831161090557829003601f168201915b5050505050905090565b61093e610937610b4f565b8383610fdb565b5050565b61094d3382846106cc565b5050565b61096261095c610b4f565b83610c10565b6109a1576040517f08c379a000000000000000000000000000000000000000000000000000000000815260040161099890612922565b60405180910390fd5b6109ad84848484611147565b50505050565b60606109be826111a3565b9050919050565b6000600560008473ffffffffffffffffffffffffffffffffffffffff1673ffffffffffffffffffffffffffffffffffffffff16815260200190815260200160002060008373ffffffffffffffffffffffffffffffffffffffff1673ffffffffffffffffffffffffffffffffffffffff16815260200190815260200160002060009054906101000a900460ff16905092915050565b6000610a65600b6112b5565b9050610a71600b6112c3565b610a7b83826112d9565b610a8581836112f7565b505050565b60007f780e9d63000000000000000000000000000000000000000000000000000000007bffffffffffffffffffffffffffffffffffffffffffffffffffffffff1916827bffffffffffffffffffffffffffffffffffffffffffffffffffffffff19161480610afd5750610afc82611364565b5b9050919050565b610b0d81611446565b610b4c576040517f08c379a0000000000000000000000000000000000000000000000000000000008152600401610b4390612ae1565b60405180910390fd5b50565b600033905090565b816004600083815260200190815260200160002060006101000a81548173ffffffffffffffffffffffffffffffffffffffff021916908373ffffffffffffffffffffffffffffffffffffffff160217905550808273ffffffffffffffffffffffffffffffffffffffff16610bca8361075d565b73ffffffffffffffffffffffffffffffffffffffff167f8c5be1e5ebec7d5bd14f71427d1e84f3dd0314c0f7b2291e5b200ac8c7c3b92560405160405180910390a45050565b600080610c1c8361075d565b90508073ffffffffffffffffffffffffffffffffffffffff168473ffffffffffffffffffffffffffffffffffffffff161480610c5e5750610c5d81856109c5565b5b80610c9c57508373ffffffffffffffffffffffffffffffffffffffff16610c848461045d565b73ffffffffffffffffffffffffffffffffffffffff16145b91505092915050565b8273ffffffffffffffffffffffffffffffffffffffff16610cc58261075d565b73ffffffffffffffffffffffffffffffffffffffff1614610d1b576040517f08c379a0000000000000000000000000000000000000000000000000000000008152600401610d1290612c05565b60405180910390fd5b600073ffffffffffffffffffffffffffffffffffffffff168273ffffffffffffffffffffffffffffffffffffffff1603610d8a576040517f08c379a0000000000000000000000000000000000000000000000000000000008152600401610d8190612c97565b60405180910390fd5b610d978383836001611487565b8273ffffffffffffffffffffffffffffffffffffffff16610db78261075d565b73ffffffffffffffffffffffffffffffffffffffff1614610e0d576040517f08c379a0000000000000000000000000000000000000000000000000000000008152600401610e0490612c05565b60405180910390fd5b6004600082815260200190815260200160002060006101000a81549073ffffffffffffffffffffffffffffffffffffffff02191690556001600360008573ffffffffffffffffffffffffffffffffffffffff1673ffffffffffffffffffffffffffffffffffffffff168152602001908152602001600020600082825403925050819055506001600360008473ffffffffffffffffffffffffffffffffffffffff1673ffffffffffffffffffffffffffffffffffffffff16815260200190815260200160002060008282540192505081905550816002600083815260200190815260200160002060006101000a81548173ffffffffffffffffffffffffffffffffffffffff021916908373ffffffffffffffffffffffffffffffffffffffff160217905550808273ffffffffffffffffffffffffffffffffffffffff168473ffffffffffffffffffffffffffffffffffffffff167fddf252ad1be2c89b69c2b068fc378daa952ba7f163c4a11628f55a4df523b3ef60405160405180910390a4610f998383836001611499565b505050565b60006002600083815260200190815260200160002060009054906101000a900473ffffffffffffffffffffffffffffffffffffffff169050919050565b8173ffffffffffffffffffffffffffffffffffffffff168373ffffffffffffffffffffffffffffffffffffffff1603611049576040517f08c379a000000000000000000000000000000000000000000000000000000000815260040161104090612d03565b60405180910390fd5b80600560008573ffffffffffffffffffffffffffffffffffffffff1673ffffffffffffffffffffffffffffffffffffffff16815260200190815260200160002060008473ffffffffffffffffffffffffffffffffffffffff1673ffffffffffffffffffffffffffffffffffffffff16815260200190815260200160002060006101000a81548160ff0219169083151502179055508173ffffffffffffffffffffffffffffffffffffffff168373ffffffffffffffffffffffffffffffffffffffff167f17307eab39ab6107e8899845ad3d59bd9653f200f220920489ca2b5937696c318360405161113a91906120e9565b60405180910390a3505050565b611152848484610ca5565b61115e8484848461149f565b61119d576040517f08c379a000000000000000000000000000000000000000000000000000000000815260040161119490612d95565b60405180910390fd5b50505050565b60606111ae82610b04565b60006006600084815260200190815260200160002080546111ce9061275b565b80601f01602080910402602001604051908101604052809291908181526020018280546111fa9061275b565b80156112475780601f1061121c57610100808354040283529160200191611247565b820191906000526020600020905b81548152906001019060200180831161122a57829003601f168201915b505050505090506000611258611626565b9050600081510361126d5781925050506112b0565b6000825111156112a257808260405160200161128a929190612df1565b604051602081830303815290604052925050506112b0565b6112ab8461163d565b925050505b919050565b600081600001549050919050565b6001816000016000828254019250508190555050565b6112f38282604051806020016040528060008152506116a5565b5050565b61130082611446565b61133f576040517f08c379a000000000000000000000000000000000000000000000000000000000815260040161133690612e87565b60405180910390fd5b8060066000848152602001908152602001600020908161135f9190613053565b505050565b60007f80ac58cd000000000000000000000000000000000000000000000000000000007bffffffffffffffffffffffffffffffffffffffffffffffffffffffff1916827bffffffffffffffffffffffffffffffffffffffffffffffffffffffff1916148061142f57507f5b5e139f000000000000000000000000000000000000000000000000000000007bffffffffffffffffffffffffffffffffffffffffffffffffffffffff1916827bffffffffffffffffffffffffffffffffffffffffffffffffffffffff1916145b8061143f575061143e82611700565b5b9050919050565b60008073ffffffffffffffffffffffffffffffffffffffff1661146883610f9e565b73ffffffffffffffffffffffffffffffffffffffff1614159050919050565b6114938484848461176a565b50505050565b50505050565b60006114c08473ffffffffffffffffffffffffffffffffffffffff166118c8565b15611619578373ffffffffffffffffffffffffffffffffffffffff1663150b7a026114e9610b4f565b8786866040518563ffffffff1660e01b815260040161150b949392919061317a565b6020604051808303816000875af192505050801561154757506040513d601f19601f8201168201806040525081019061154491906131db565b60015b6115c9573d8060008114611577576040519150601f19603f3d011682016040523d82523d6000602084013e61157c565b606091505b5060008151036115c1576040517f08c379a00000000000000000000000000000000000000000000000000000000081526004016115b890612d95565b60405180910390fd5b805181602001fd5b63150b7a0260e01b7bffffffffffffffffffffffffffffffffffffffffffffffffffffffff1916817bffffffffffffffffffffffffffffffffffffffffffffffffffffffff19161491505061161e565b600190505b949350505050565b606060405180602001604052806000815250905090565b606061164882610b04565b6000611652611626565b90506000815111611672576040518060200160405280600081525061169d565b8061167c846118eb565b60405160200161168d929190612df1565b6040516020818303038152906040525b915050919050565b6116af83836119b9565b6116bc600084848461149f565b6116fb576040517f08c379a00000000000000000000000000000000000000000000000000000000081526004016116f290612d95565b60405180910390fd5b505050565b60007f01ffc9a7000000000000000000000000000000000000000000000000000000007bffffffffffffffffffffffffffffffffffffffffffffffffffffffff1916827bffffffffffffffffffffffffffffffffffffffffffffffffffffffff1916149050919050565b61177684848484611bd6565b60018111156117ba576040517f08c379a00000000000000000000000000000000000000000000000000000000081526004016117b19061327a565b60405180910390fd5b6000829050600073ffffffffffffffffffffffffffffffffffffffff168573ffffffffffffffffffffffffffffffffffffffff1603611801576117fc81611bdc565b611840565b8373ffffffffffffffffffffffffffffffffffffffff168573ffffffffffffffffffffffffffffffffffffffff161461183f5761183e8582611c25565b5b5b600073ffffffffffffffffffffffffffffffffffffffff168473ffffffffffffffffffffffffffffffffffffffff16036118825761187d81611d92565b6118c1565b8473ffffffffffffffffffffffffffffffffffffffff168473ffffffffffffffffffffffffffffffffffffffff16146118c0576118bf8482611e63565b5b5b5050505050565b6000808273ffffffffffffffffffffffffffffffffffffffff163b119050919050565b6060600060016118fa84611ee2565b01905060008167ffffffffffffffff81111561191957611918612441565b5b6040519080825280601f01601f19166020018201604052801561194b5781602001600182028036833780820191505090505b509050600082602001820190505b6001156119ae578080600190039150507f3031323334353637383961626364656600000000000000000000000000000000600a86061a8153600a85816119a2576119a161329a565b5b04945060008503611959575b819350505050919050565b600073ffffffffffffffffffffffffffffffffffffffff168273ffffffffffffffffffffffffffffffffffffffff1603611a28576040517f08c379a0000000000000000000000000000000000000000000000000000000008152600401611a1f90613315565b60405180910390fd5b611a3181611446565b15611a71576040517f08c379a0000000000000000000000000000000000000000000000000000000008152600401611a6890613381565b60405180910390fd5b611a7f600083836001611487565b611a8881611446565b15611ac8576040517f08c379a0000000000000000000000000000000000000000000000000000000008152600401611abf90613381565b60405180910390fd5b6001600360008473ffffffffffffffffffffffffffffffffffffffff1673ffffffffffffffffffffffffffffffffffffffff16815260200190815260200160002060008282540192505081905550816002600083815260200190815260200160002060006101000a81548173ffffffffffffffffffffffffffffffffffffffff021916908373ffffffffffffffffffffffffffffffffffffffff160217905550808273ffffffffffffffffffffffffffffffffffffffff16600073ffffffffffffffffffffffffffffffffffffffff167fddf252ad1be2c89b69c2b068fc378daa952ba7f163c4a11628f55a4df523b3ef60405160405180910390a4611bd2600083836001611499565b5050565b50505050565b600980549050600a600083815260200190815260200160002081905550600981908060018154018082558091505060019003906000526020600020016000909190919091505550565b60006001611c32846107e3565b611c3c91906133d0565b9050600060086000848152602001908152602001600020549050818114611d21576000600760008673ffffffffffffffffffffffffffffffffffffffff1673ffffffffffffffffffffffffffffffffffffffff168152602001908152602001600020600084815260200190815260200160002054905080600760008773ffffffffffffffffffffffffffffffffffffffff1673ffffffffffffffffffffffffffffffffffffffff168152602001908152602001600020600084815260200190815260200160002081905550816008600083815260200190815260200160002081905550505b6008600084815260200190815260200160002060009055600760008573ffffffffffffffffffffffffffffffffffffffff1673ffffffffffffffffffffffffffffffffffffffff16815260200190815260200160002060008381526020019081526020016000206000905550505050565b60006001600980549050611da691906133d0565b90506000600a6000848152602001908152602001600020549050600060098381548110611dd657611dd5612a66565b5b906000526020600020015490508060098381548110611df857611df7612a66565b5b906000526020600020018190555081600a600083815260200190815260200160002081905550600a6000858152602001908152602001600020600090556009805480611e4757611e46613404565b5b6001900381819060005260206000200160009055905550505050565b6000611e6e836107e3565b905081600760008573ffffffffffffffffffffffffffffffffffffffff1673ffffffffffffffffffffffffffffffffffffffff168152602001908152602001600020600083815260200190815260200160002081905550806008600084815260200190815260200160002081905550505050565b600080600090507a184f03e93ff9f4daa797ed6e38ed64bf6a1f0100000000000000008310611f40577a184f03e93ff9f4daa797ed6e38ed64bf6a1f0100000000000000008381611f3657611f3561329a565b5b0492506040810190505b6d04ee2d6d415b85acef81000000008310611f7d576d04ee2d6d415b85acef81000000008381611f7357611f7261329a565b5b0492506020810190505b662386f26fc100008310611fac57662386f26fc100008381611fa257611fa161329a565b5b0492506010810190505b6305f5e1008310611fd5576305f5e1008381611fcb57611fca61329a565b5b0492506008810190505b6127108310611ffa576127108381611ff057611fef61329a565b5b0492506004810190505b6064831061201d57606483816120135761201261329a565b5b0492506002810190505b600a831061202c576001810190505b80915050919050565b6000604051905090565b600080fd5b600080fd5b60007fffffffff0000000000000000000000000000000000000000000000000000000082169050919050565b61207e81612049565b811461208957600080fd5b50565b60008135905061209b81612075565b92915050565b6000602082840312156120b7576120b661203f565b5b60006120c58482850161208c565b91505092915050565b60008115159050919050565b6120e3816120ce565b82525050565b60006020820190506120fe60008301846120da565b92915050565b600081519050919050565b600082825260208201905092915050565b60005b8381101561213e578082015181840152602081019050612123565b60008484015250505050565b6000601f19601f8301169050919050565b600061216682612104565b612170818561210f565b9350612180818560208601612120565b6121898161214a565b840191505092915050565b600060208201905081810360008301526121ae818461215b565b905092915050565b6000819050919050565b6121c9816121b6565b81146121d457600080fd5b50565b6000813590506121e6816121c0565b92915050565b6000602082840312156122025761220161203f565b5b6000612210848285016121d7565b91505092915050565b600073ffffffffffffffffffffffffffffffffffffffff82169050919050565b600061224482612219565b9050919050565b61225481612239565b82525050565b600060208201905061226f600083018461224b565b92915050565b61227e81612239565b811461228957600080fd5b50565b60008135905061229b81612275565b92915050565b600080604083850312156122b8576122b761203f565b5b60006122c68582860161228c565b92505060206122d7858286016121d7565b9150509250929050565b6122ea816121b6565b82525050565b600060208201905061230560008301846122e1565b92915050565b6000806000606084860312156123245761232361203f565b5b60006123328682870161228c565b93505060206123438682870161228c565b9250506040612354868287016121d7565b9150509250925092565b6000602082840312156123745761237361203f565b5b60006123828482850161228c565b91505092915050565b612394816120ce565b811461239f57600080fd5b50565b6000813590506123b18161238b565b92915050565b600080604083850312156123ce576123cd61203f565b5b60006123dc8582860161228c565b92505060206123ed858286016123a2565b9150509250929050565b6000806040838503121561240e5761240d61203f565b5b600061241c858286016121d7565b925050602061242d8582860161228c565b9150509250929050565b600080fd5b600080fd5b7f4e487b7100000000000000000000000000000000000000000000000000000000600052604160045260246000fd5b6124798261214a565b810181811067ffffffffffffffff8211171561249857612497612441565b5b80604052505050565b60006124ab612035565b90506124b78282612470565b919050565b600067ffffffffffffffff8211156124d7576124d6612441565b5b6124e08261214a565b9050602081019050919050565b82818337600083830152505050565b600061250f61250a846124bc565b6124a1565b90508281526020810184848401111561252b5761252a61243c565b5b6125368482856124ed565b509392505050565b600082601f83011261255357612552612437565b5b81356125638482602086016124fc565b91505092915050565b600080600080608085870312156125865761258561203f565b5b60006125948782880161228c565b94505060206125a58782880161228c565b93505060406125b6878288016121d7565b925050606085013567ffffffffffffffff8111156125d7576125d6612044565b5b6125e38782880161253e565b91505092959194509250565b600080604083850312156126065761260561203f565b5b60006126148582860161228c565b92505060206126258582860161228c565b9150509250929050565b600067ffffffffffffffff82111561264a57612649612441565b5b6126538261214a565b9050602081019050919050565b600061267361266e8461262f565b6124a1565b90508281526020810184848401111561268f5761268e61243c565b5b61269a8482856124ed565b509392505050565b600082601f8301126126b7576126b6612437565b5b81356126c7848260208601612660565b91505092915050565b600080604083850312156126e7576126e661203f565b5b60006126f58582860161228c565b925050602083013567ffffffffffffffff81111561271657612715612044565b5b612722858286016126a2565b9150509250929050565b7f4e487b7100000000000000000000000000000000000000000000000000000000600052602260045260246000fd5b6000600282049050600182168061277357607f821691505b6020821081036127865761278561272c565b5b50919050565b7f4552433732313a20617070726f76616c20746f2063757272656e74206f776e6560008201527f7200000000000000000000000000000000000000000000000000000000000000602082015250565b60006127e860218361210f565b91506127f38261278c565b604082019050919050565b60006020820190508181036000830152612817816127db565b9050919050565b7f4552433732313a20617070726f76652063616c6c6572206973206e6f7420746f60008201527f6b656e206f776e6572206f7220617070726f76656420666f7220616c6c000000602082015250565b600061287a603d8361210f565b91506128858261281e565b604082019050919050565b600060208201905081810360008301526128a98161286d565b9050919050565b7f4552433732313a2063616c6c6572206973206e6f7420746f6b656e206f776e6560008201527f72206f7220617070726f76656400000000000000000000000000000000000000602082015250565b600061290c602d8361210f565b9150612917826128b0565b604082019050919050565b6000602082019050818103600083015261293b816128ff565b9050919050565b7f455243373231456e756d657261626c653a206f776e657220696e646578206f7560008201527f74206f6620626f756e6473000000000000000000000000000000000000000000602082015250565b600061299e602b8361210f565b91506129a982612942565b604082019050919050565b600060208201905081810360008301526129cd81612991565b9050919050565b7f455243373231456e756d657261626c653a20676c6f62616c20696e646578206f60008201527f7574206f6620626f756e64730000000000000000000000000000000000000000602082015250565b6000612a30602c8361210f565b9150612a3b826129d4565b604082019050919050565b60006020820190508181036000830152612a5f81612a23565b9050919050565b7f4e487b7100000000000000000000000000000000000000000000000000000000600052603260045260246000fd5b7f4552433732313a20696e76616c696420746f6b656e2049440000000000000000600082015250565b6000612acb60188361210f565b9150612ad682612a95565b602082019050919050565b60006020820190508181036000830152612afa81612abe565b9050919050565b7f4552433732313a2061646472657373207a65726f206973206e6f74206120766160008201527f6c6964206f776e65720000000000000000000000000000000000000000000000602082015250565b6000612b5d60298361210f565b9150612b6882612b01565b604082019050919050565b60006020820190508181036000830152612b8c81612b50565b9050919050565b7f4552433732313a207472616e736665722066726f6d20696e636f72726563742060008201527f6f776e6572000000000000000000000000000000000000000000000000000000602082015250565b6000612bef60258361210f565b9150612bfa82612b93565b604082019050919050565b60006020820190508181036000830152612c1e81612be2565b9050919050565b7f4552433732313a207472616e7366657220746f20746865207a65726f2061646460008201527f7265737300000000000000000000000000000000000000000000000000000000602082015250565b6000612c8160248361210f565b9150612c8c82612c25565b604082019050919050565b60006020820190508181036000830152612cb081612c74565b9050919050565b7f4552433732313a20617070726f766520746f2063616c6c657200000000000000600082015250565b6000612ced60198361210f565b9150612cf882612cb7565b602082019050919050565b60006020820190508181036000830152612d1c81612ce0565b9050919050565b7f4552433732313a207472616e7366657220746f206e6f6e20455243373231526560008201527f63656976657220696d706c656d656e7465720000000000000000000000000000602082015250565b6000612d7f60328361210f565b9150612d8a82612d23565b604082019050919050565b60006020820190508181036000830152612dae81612d72565b9050919050565b600081905092915050565b6000612dcb82612104565b612dd58185612db5565b9350612de5818560208601612120565b80840191505092915050565b6000612dfd8285612dc0565b9150612e098284612dc0565b91508190509392505050565b7f45524337323155524953746f726167653a2055524920736574206f66206e6f6e60008201527f6578697374656e7420746f6b656e000000000000000000000000000000000000602082015250565b6000612e71602e8361210f565b9150612e7c82612e15565b604082019050919050565b60006020820190508181036000830152612ea081612e64565b9050919050565b60008190508160005260206000209050919050565b60006020601f8301049050919050565b600082821b905092915050565b600060088302612f097fffffffffffffffffffffffffffffffffffffffffffffffffffffffffffffffff82612ecc565b612f138683612ecc565b95508019841693508086168417925050509392505050565b6000819050919050565b6000612f50612f4b612f46846121b6565b612f2b565b6121b6565b9050919050565b6000819050919050565b612f6a83612f35565b612f7e612f7682612f57565b848454612ed9565b825550505050565b600090565b612f93612f86565b612f9e818484612f61565b505050565b5b81811015612fc257612fb7600082612f8b565b600181019050612fa4565b5050565b601f82111561300757612fd881612ea7565b612fe184612ebc565b81016020851015612ff0578190505b613004612ffc85612ebc565b830182612fa3565b50505b505050565b600082821c905092915050565b600061302a6000198460080261300c565b1980831691505092915050565b60006130438383613019565b9150826002028217905092915050565b61305c82612104565b67ffffffffffffffff81111561307557613074612441565b5b61307f825461275b565b61308a828285612fc6565b600060209050601f8311600181146130bd57600084156130ab578287015190505b6130b58582613037565b86555061311d565b601f1984166130cb86612ea7565b60005b828110156130f3578489015182556001820191506020850194506020810190506130ce565b86831015613110578489015161310c601f891682613019565b8355505b6001600288020188555050505b505050505050565b600081519050919050565b600082825260208201905092915050565b600061314c82613125565b6131568185613130565b9350613166818560208601612120565b61316f8161214a565b840191505092915050565b600060808201905061318f600083018761224b565b61319c602083018661224b565b6131a960408301856122e1565b81810360608301526131bb8184613141565b905095945050505050565b6000815190506131d581612075565b92915050565b6000602082840312156131f1576131f061203f565b5b60006131ff848285016131c6565b91505092915050565b7f455243373231456e756d657261626c653a20636f6e736563757469766520747260008201527f616e7366657273206e6f7420737570706f727465640000000000000000000000602082015250565b600061326460358361210f565b915061326f82613208565b604082019050919050565b6000602082019050818103600083015261329381613257565b9050919050565b7f4e487b7100000000000000000000000000000000000000000000000000000000600052601260045260246000fd5b7f4552433732313a206d696e7420746f20746865207a65726f2061646472657373600082015250565b60006132ff60208361210f565b915061330a826132c9565b602082019050919050565b6000602082019050818103600083015261332e816132f2565b9050919050565b7f4552433732313a20746f6b656e20616c7265616479206d696e74656400000000600082015250565b600061336b601c8361210f565b915061337682613335565b602082019050919050565b6000602082019050818103600083015261339a8161335e565b9050919050565b7f4e487b7100000000000000000000000000000000000000000000000000000000600052601160045260246000fd5b60006133db826121b6565b91506133e6836121b6565b92508282039050818111156133fe576133fd6133a1565b5b92915050565b7f4e487b7100000000000000000000000000000000000000000000000000000000600052603160045260246000fdfea264697066735822122033af8e8fb4a5a71550b787c91af9fe85f83a7934b15cfd2c3e83bd10bfec3e7f64736f6c63430008120033",
	"linkReferences": {},
	"deployedLinkReferences": {}
}